{"abi":[{"type":"constructor","inputs":[{"name":"_owner","type":"address","internalType":"address"}],"stateMutability":"nonpayable"},{"type":"function","name":"deposit","inputs":[{"name":"token","type":"address","internalType":"address"},{"name":"amount","type":"uint256","internalType":"uint256"}],"outputs":[],"stateMutability":"nonpayable"},{"type":"function","name":"getBalance","inputs":[{"name":"token","type":"address","internalType":"address"}],"outputs":[{"name":"","type":"uint256","internalType":"uint256"}],"stateMutability":"view"},{"type":"function","name":"owner","inputs":[],"outputs":[{"name":"","type":"address","internalType":"address"}],"stateMutability":"view"},{"type":"function","name":"renounceOwnership","inputs":[],"outputs":[],"stateMutability":"nonpayable"},{"type":"function","name":"transferOwnership","inputs":[{"name":"newOwner","type":"address","internalType":"address"}],"outputs":[],"stateMutability":"nonpayable"},{"type":"function","name":"withdraw","inputs":[{"name":"token","type":"address","internalType":"address"},{"name":"amount","type":"uint256","internalType":"uint256"}],"outputs":[],"stateMutability":"nonpayable"},{"type":"event","name":"Deposited","inputs":[{"name":"token","type":"address","indexed":true,"internalType":"address"},{"name":"amount","type":"uint256","indexed":false,"internalType":"uint256"}],"anonymous":false},{"type":"event","name":"OwnershipTransferred","inputs":[{"name":"previousOwner","type":"address","indexed":true,"internalType":"address"},{"name":"newOwner","type":"address","indexed":true,"internalType":"address"}],"anonymous":false},{"type":"event","name":"Withdrawn","inputs":[{"name":"token","type":"address","indexed":true,"internalType":"address"},{"name":"amount","type":"uint256","indexed":false,"internalType":"uint256"}],"anonymous":false},{"type":"error","name":"InsufficientBalance","inputs":[]},{"type":"error","name":"InvalidAmount","inputs":[]},{"type":"error","name":"OwnableInvalidOwner","inputs":[{"name":"owner","type":"address","internalType":"address"}]},{"type":"error","name":"OwnableUnauthorizedAccount","inputs":[{"name":"account","type":"address","internalType":"address"}]},{"type":"error","name":"SafeERC20FailedOperation","inputs":[{"name":"token","type":"address","internalType":"address"}]}],"bytecode":{"object":"0x608060405234801561000f575f5ffd5b50604051610b3c380380610b3c833981810160405281019061003191906101d7565b805f73ffffffffffffffffffffffffffffffffffffffff168173ffffffffffffffffffffffffffffffffffffffff16036100a2575f6040517f1e4fbdf70000000000000000000000000000000000000000000000000000000081526004016100999190610211565b60405180910390fd5b6100b1816100b860201b60201c565b505061022a565b5f5f5f9054906101000a900473ffffffffffffffffffffffffffffffffffffffff169050815f5f6101000a81548173ffffffffffffffffffffffffffffffffffffffff021916908373ffffffffffffffffffffffffffffffffffffffff1602179055508173ffffffffffffffffffffffffffffffffffffffff168173ffffffffffffffffffffffffffffffffffffffff167f8be0079c531659141344cd1fd0a4f28419497f9722a3daafe3b4186f6b6457e060405160405180910390a35050565b5f5ffd5b5f73ffffffffffffffffffffffffffffffffffffffff82169050919050565b5f6101a68261017d565b9050919050565b6101b68161019c565b81146101c0575f5ffd5b50565b5f815190506101d1816101ad565b92915050565b5f602082840312156101ec576101eb610179565b5b5f6101f9848285016101c3565b91505092915050565b61020b8161019c565b82525050565b5f6020820190506102245f830184610202565b92915050565b610905806102375f395ff3fe608060405234801561000f575f5ffd5b5060043610610060575f3560e01c806347e7ef2414610064578063715018a6146100805780638da5cb5b1461008a578063f2fde38b146100a8578063f3fef3a3146100c4578063f8b2cb4f146100e0575b5f5ffd5b61007e600480360381019061007991906107d7565b610110565b005b6100886101c8565b005b6100926101db565b60405161009f9190610824565b60405180910390f35b6100c260048036038101906100bd919061083d565b610202565b005b6100de60048036038101906100d991906107d7565b610286565b005b6100fa60048036038101906100f5919061083d565b6103fc565b6040516101079190610877565b60405180910390f35b5f8103610149576040517f2c5211c600000000000000000000000000000000000000000000000000000000815260040160405180910390fd5b6101763330838573ffffffffffffffffffffffffffffffffffffffff1661047c909392919063ffffffff16565b8173ffffffffffffffffffffffffffffffffffffffff167f2da466a7b24304f47e87fa2e1e5a81b9831ce54fec19055ce277ca2f39ba42c4826040516101bc9190610877565b60405180910390a25050565b6101d06104d1565b6101d95f610558565b565b5f5f5f9054906101000a900473ffffffffffffffffffffffffffffffffffffffff16905090565b61020a6104d1565b5f73ffffffffffffffffffffffffffffffffffffffff168173ffffffffffffffffffffffffffffffffffffffff160361027a575f6040517f1e4fbdf70000000000000000000000000000000000000000000000000000000081526004016102719190610824565b60405180910390fd5b61028381610558565b50565b61028e6104d1565b5f81036102c7576040517f2c5211c600000000000000000000000000000000000000000000000000000000815260040160405180910390fd5b808273ffffffffffffffffffffffffffffffffffffffff166370a08231306040518263ffffffff1660e01b81526004016103019190610824565b602060405180830381865afa15801561031c573d5f5f3e3d5ffd5b505050506040513d601f19601f8201168201806040525081019061034091906108a4565b1015610378576040517ff4d678b800000000000000000000000000000000000000000000000000000000815260040160405180910390fd5b6103aa6103836101db565b828473ffffffffffffffffffffffffffffffffffffffff166106199092919063ffffffff16565b8173ffffffffffffffffffffffffffffffffffffffff167f7084f5476618d8e60b11ef0d7d3f06914655adb8793e28ff7f018d4c76d505d5826040516103f09190610877565b60405180910390a25050565b5f8173ffffffffffffffffffffffffffffffffffffffff166370a08231306040518263ffffffff1660e01b81526004016104369190610824565b602060405180830381865afa158015610451573d5f5f3e3d5ffd5b505050506040513d601f19601f8201168201806040525081019061047591906108a4565b9050919050565b61048a84848484600161066c565b6104cb57836040517f5274afe70000000000000000000000000000000000000000000000000000000081526004016104c29190610824565b60405180910390fd5b50505050565b6104d96106dd565b73ffffffffffffffffffffffffffffffffffffffff166104f76101db565b73ffffffffffffffffffffffffffffffffffffffff16146105565761051a6106dd565b6040517f118cdaa700000000000000000000000000000000000000000000000000000000815260040161054d9190610824565b60405180910390fd5b565b5f5f5f9054906101000a900473ffffffffffffffffffffffffffffffffffffffff169050815f5f6101000a81548173ffffffffffffffffffffffffffffffffffffffff021916908373ffffffffffffffffffffffffffffffffffffffff1602179055508173ffffffffffffffffffffffffffffffffffffffff168173ffffffffffffffffffffffffffffffffffffffff167f8be0079c531659141344cd1fd0a4f28419497f9722a3daafe3b4186f6b6457e060405160405180910390a35050565b61062683838360016106e4565b61066757826040517f5274afe700000000000000000000000000000000000000000000000000000000815260040161065e9190610824565b60405180910390fd5b505050565b5f5f6323b872dd60e01b9050604051815f525f1960601c87166004525f1960601c86166024528460445260205f60645f5f8c5af1925060015f511483166106ca5783831516156106be573d5f823e3d81fd5b5f883b113d1516831692505b806040525f606052505095945050505050565b5f33905090565b5f5f63a9059cbb60e01b9050604051815f525f1960601c86166004528460245260205f60445f5f8b5af1925060015f5114831661073857838315161561072c573d5f823e3d81fd5b5f873b113d1516831692505b806040525050949350505050565b5f5ffd5b5f73ffffffffffffffffffffffffffffffffffffffff82169050919050565b5f6107738261074a565b9050919050565b61078381610769565b811461078d575f5ffd5b50565b5f8135905061079e8161077a565b92915050565b5f819050919050565b6107b6816107a4565b81146107c0575f5ffd5b50565b5f813590506107d1816107ad565b92915050565b5f5f604083850312156107ed576107ec610746565b5b5f6107fa85828601610790565b925050602061080b858286016107c3565b9150509250929050565b61081e81610769565b82525050565b5f6020820190506108375f830184610815565b92915050565b5f6020828403121561085257610851610746565b5b5f61085f84828501610790565b91505092915050565b610871816107a4565b82525050565b5f60208201905061088a5f830184610868565b92915050565b5f8151905061089e816107ad565b92915050565b5f602082840312156108b9576108b8610746565b5b5f6108c684828501610890565b9150509291505056fea2646970667358221220f8cc7b27edae481b0ef5de1aa5b86e6761dcb5c9b06f1aa64ac6d51536c67e8e64736f6c634300081e0033","linkReferences":{}},"methodIdentifiers":{"deposit(address,uint256)":"47e7ef24","getBalance(address)":"f8b2cb4f","owner()":"8da5cb5b","renounceOwnership()":"715018a6","transferOwnership(address)":"f2fde38b","withdraw(address,uint256)":"f3fef3a3"},"id":8}