{"abi":[{"type":"constructor","inputs":[{"name":"_owner","type":"address","internalType":"address"}],"stateMutability":"nonpayable"},{"type":"function","name":"cancelRule","inputs":[{"name":"ruleId","type":"uint256","internalType":"uint256"}],"outputs":[],"stateMutability":"nonpayable"},{"type":"function","name":"createRule","inputs":[{"name":"token","type":"address","internalType":"address"},{"name":"recipient","type":"address","internalType":"address"},{"name":"amount","type":"uint256","internalType":"uint256"},{"name":"interval","type":"uint256","internalType":"uint256"},{"name":"description","type":"string","internalType":"string"}],"outputs":[{"name":"ruleId","type":"uint256","internalType":"uint256"}],"stateMutability":"nonpayable"},{"type":"function","name":"deposit","inputs":[{"name":"token","type":"address","internalType":"address"},{"name":"amount","type":"uint256","internalType":"uint256"}],"outputs":[],"stateMutability":"nonpayable"},{"type":"function","name":"executeRule","inputs":[{"name":"ruleId","type":"uint256","internalType":"uint256"}],"outputs":[],"stateMutability":"nonpayable"},{"type":"function","name":"getBalance","inputs":[{"name":"token","type":"address","internalType":"address"}],"outputs":[{"name":"","type":"uint256","internalType":"uint256"}],"stateMutability":"view"},{"type":"function","name":"getRule","inputs":[{"name":"ruleId","type":"uint256","internalType":"uint256"}],"outputs":[{"name":"","type":"tuple","internalType":"struct PayPilotVault.PaymentRule","components":[{"name":"id","type":"uint256","internalType":"uint256"},{"name":"token","type":"address","internalType":"address"},{"name":"recipient","type":"address","internalType":"address"},{"name":"amount","type":"uint256","internalType":"uint256"},{"name":"interval","type":"uint256","internalType":"uint256"},{"name":"lastExecuted","type":"uint256","internalType":"uint256"},{"name":"active","type":"bool","internalType":"bool"},{"name":"description","type":"string","internalType":"string"}]}],"stateMutability":"view"},{"type":"function","name":"owner","inputs":[],"outputs":[{"name":"","type":"address","internalType":"address"}],"stateMutability":"view"},{"type":"function","name":"renounceOwnership","inputs":[],"outputs":[],"stateMutability":"nonpayable"},{"type":"function","name":"ruleCount","inputs":[],"outputs":[{"name":"","type":"uint256","internalType":"uint256"}],"stateMutability":"view"},{"type":"function","name":"rules","inputs":[{"name":"","type":"uint256","internalType":"uint256"}],"outputs":[{"name":"id","type":"uint256","internalType":"uint256"},{"name":"token","type":"address","internalType":"address"},{"name":"recipient","type":"address","internalType":"address"},{"name":"amount","type":"uint256","internalType":"uint256"},{"name":"interval","type":"uint256","internalType":"uint256"},{"name":"lastExecuted","type":"uint256","internalType":"uint256"},{"name":"active","type":"bool","internalType":"bool"},{"name":"description","type":"string","internalType":"string"}],"stateMutability":"view"},{"type":"function","name":"transferOwnership","inputs":[{"name":"newOwner","type":"address","internalType":"address"}],"outputs":[],"stateMutability":"nonpayable"},{"type":"function","name":"withdraw","inputs":[{"name":"token","type":"address","internalType":"address"},{"name":"amount","type":"uint256","internalType":"uint256"}],"outputs":[],"stateMutability":"nonpayable"},{"type":"event","name":"Deposited","inputs":[{"name":"token","type":"address","indexed":true,"internalType":"address"},{"name":"amount","type":"uint256","indexed":false,"internalType":"uint256"}],"anonymous":false},{"type":"event","name":"OwnershipTransferred","inputs":[{"name":"previousOwner","type":"address","indexed":true,"internalType":"address"},{"name":"newOwner","type":"address","indexed":true,"internalType":"address"}],"anonymous":false},{"type":"event","name":"RuleCancelled","inputs":[{"name":"ruleId","type":"uint256","indexed":true,"internalType":"uint256"}],"anonymous":false},{"type":"event","name":"RuleCreated","inputs":[{"name":"ruleId","type":"uint256","indexed":true,"internalType":"uint256"},{"name":"recipient","type":"address","indexed":false,"internalType":"address"},{"name":"amount","type":"uint256","indexed":false,"internalType":"uint256"}],"anonymous":false},{"type":"event","name":"RuleExecuted","inputs":[{"name":"ruleId","type":"uint256","indexed":true,"internalType":"uint256"},{"name":"recipient","type":"address","indexed":false,"internalType":"address"},{"name":"amount","type":"uint256","indexed":false,"internalType":"uint256"}],"anonymous":false},{"type":"event","name":"Withdrawn","inputs":[{"name":"token","type":"address","indexed":true,"internalType":"address"},{"name":"amount","type":"uint256","indexed":false,"internalType":"uint256"}],"anonymous":false},{"type":"error","name":"InsufficientBalance","inputs":[]},{"type":"error","name":"InvalidAmount","inputs":[]},{"type":"error","name":"OwnableInvalidOwner","inputs":[{"name":"owner","type":"address","internalType":"address"}]},{"type":"error","name":"OwnableUnauthorizedAccount","inputs":[{"name":"account","type":"address","internalType":"address"}]},{"type":"error","name":"RuleNotActive","inputs":[]},{"type":"error","name":"SafeERC20FailedOperation","inputs":[{"name":"token","type":"address","internalType":"address"}]},{"type":"error","name":"TooEarlyToExecute","inputs":[]}],"bytecode":{"object":"0x608060405234801561000f575f5ffd5b50604051611c32380380611c32833981810160405281019061003191906101d7565b805f73ffffffffffffffffffffffffffffffffffffffff168173ffffffffffffffffffffffffffffffffffffffff16036100a2575f6040517f1e4fbdf70000000000000000000000000000000000000000000000000000000081526004016100999190610211565b60405180910390fd5b6100b1816100b860201b60201c565b505061022a565b5f5f5f9054906101000a900473ffffffffffffffffffffffffffffffffffffffff169050815f5f6101000a81548173ffffffffffffffffffffffffffffffffffffffff021916908373ffffffffffffffffffffffffffffffffffffffff1602179055508173ffffffffffffffffffffffffffffffffffffffff168173ffffffffffffffffffffffffffffffffffffffff167f8be0079c531659141344cd1fd0a4f28419497f9722a3daafe3b4186f6b6457e060405160405180910390a35050565b5f5ffd5b5f73ffffffffffffffffffffffffffffffffffffffff82169050919050565b5f6101a68261017d565b9050919050565b6101b68161019c565b81146101c0575f5ffd5b50565b5f815190506101d1816101ad565b92915050565b5f602082840312156101ec576101eb610179565b5b5f6101f9848285016101c3565b91505092915050565b61020b8161019c565b82525050565b5f6020820190506102245f830184610202565b92915050565b6119fb806102375f395ff3fe608060405234801561000f575f5ffd5b50600436106100b2575f3560e01c8063c8c4c0341161006f578063c8c4c03414610191578063f2fde38b146101ad578063f3fef3a3146101c9578063f6bcf633146101e5578063f77e245514610203578063f8b2cb4f1461021f576100b2565b806304d6ded4146100b65780631f6257cb146100ed57806347e7ef241461011d5780634846203714610139578063715018a6146101695780638da5cb5b14610173575b5f5ffd5b6100d060048036038101906100cb919061113b565b61024f565b6040516100e498979695949392919061123e565b60405180910390f35b6101076004803603810190610102919061134c565b610363565b60405161011491906113e2565b60405180910390f35b610137600480360381019061013291906113fb565b6105a8565b005b610153600480360381019061014e919061113b565b610660565b604051610160919061155b565b60405180910390f35b610171610807565b005b61017b61081a565b604051610188919061157b565b60405180910390f35b6101ab60048036038101906101a6919061113b565b610841565b005b6101c760048036038101906101c29190611594565b610ae7565b005b6101e360048036038101906101de91906113fb565b610b6b565b005b6101ed610ce1565b6040516101fa91906113e2565b60405180910390f35b61021d6004803603810190610218919061113b565b610ce7565b005b61023960048036038101906102349190611594565b610d4a565b60405161024691906113e2565b60405180910390f35b6001602052805f5260405f205f91509050805f015490806001015f9054906101000a900473ffffffffffffffffffffffffffffffffffffffff1690806002015f9054906101000a900473ffffffffffffffffffffffffffffffffffffffff1690806003015490806004015490806005015490806006015f9054906101000a900460ff16908060070180546102e2906115ec565b80601f016020809104026020016040519081016040528092919081815260200182805461030e906115ec565b80156103595780601f1061033057610100808354040283529160200191610359565b820191905f5260205f20905b81548152906001019060200180831161033c57829003601f168201915b5050505050905088565b5f61036c610dca565b5f85036103a5576040517f2c5211c600000000000000000000000000000000000000000000000000000000815260040160405180910390fd5b60025f8154809291906103b790611649565b9190505590506040518061010001604052808281526020018873ffffffffffffffffffffffffffffffffffffffff1681526020018773ffffffffffffffffffffffffffffffffffffffff1681526020018681526020018581526020015f815260200160011515815260200184848080601f0160208091040260200160405190810160405280939291908181526020018383808284375f81840152601f19601f8201169050808301925050505050505081525060015f8381526020019081526020015f205f820151815f01556020820151816001015f6101000a81548173ffffffffffffffffffffffffffffffffffffffff021916908373ffffffffffffffffffffffffffffffffffffffff1602179055506040820151816002015f6101000a81548173ffffffffffffffffffffffffffffffffffffffff021916908373ffffffffffffffffffffffffffffffffffffffff160217905550606082015181600301556080820151816004015560a0820151816005015560c0820151816006015f6101000a81548160ff02191690831515021790555060e0820151816007019081610560919061185d565b50905050807fa5a05b6f921615a2a8b76b731acd36283b9b9aa6413126c26c1ba68bab813e5d878760405161059692919061192c565b60405180910390a29695505050505050565b5f81036105e1576040517f2c5211c600000000000000000000000000000000000000000000000000000000815260040160405180910390fd5b61060e3330838573ffffffffffffffffffffffffffffffffffffffff16610e51909392919063ffffffff16565b8173ffffffffffffffffffffffffffffffffffffffff167f2da466a7b24304f47e87fa2e1e5a81b9831ce54fec19055ce277ca2f39ba42c48260405161065491906113e2565b60405180910390a25050565b610668611094565b60015f8381526020019081526020015f20604051806101000160405290815f8201548152602001600182015f9054906101000a900473ffffffffffffffffffffffffffffffffffffffff1673ffffffffffffffffffffffffffffffffffffffff1673ffffffffffffffffffffffffffffffffffffffff168152602001600282015f9054906101000a900473ffffffffffffffffffffffffffffffffffffffff1673ffffffffffffffffffffffffffffffffffffffff1673ffffffffffffffffffffffffffffffffffffffff168152602001600382015481526020016004820154815260200160058201548152602001600682015f9054906101000a900460ff16151515158152602001600782018054610780906115ec565b80601f01602080910402602001604051908101604052809291908181526020018280546107ac906115ec565b80156107f75780601f106107ce576101008083540402835291602001916107f7565b820191905f5260205f20905b8154815290600101906020018083116107da57829003601f168201915b5050505050815250509050919050565b61080f610dca565b6108185f610ea6565b565b5f5f5f9054906101000a900473ffffffffffffffffffffffffffffffffffffffff16905090565b5f60015f8381526020019081526020015f209050806006015f9054906101000a900460ff1661089c576040517f822e020700000000000000000000000000000000000000000000000000000000815260040160405180910390fd5b5f81600401541180156108b257505f8160050154115b1561090557806004015481600501546108cb9190611953565b421015610904576040517fe65e683300000000000000000000000000000000000000000000000000000000815260040160405180910390fd5b5b8060030154816001015f9054906101000a900473ffffffffffffffffffffffffffffffffffffffff1673ffffffffffffffffffffffffffffffffffffffff166370a08231306040518263ffffffff1660e01b8152600401610966919061157b565b602060405180830381865afa158015610981573d5f5f3e3d5ffd5b505050506040513d601f19601f820116820180604052508101906109a5919061199a565b10156109dd576040517ff4d678b800000000000000000000000000000000000000000000000000000000815260040160405180910390fd5b4281600501819055505f816004015403610a0d575f816006015f6101000a81548160ff0219169083151502179055505b610a82816002015f9054906101000a900473ffffffffffffffffffffffffffffffffffffffff168260030154836001015f9054906101000a900473ffffffffffffffffffffffffffffffffffffffff1673ffffffffffffffffffffffffffffffffffffffff16610f679092919063ffffffff16565b817f7d09350a2900cc9ab2f1d049377a344a64b58dbd74621c887b0e92ef7777d774826002015f9054906101000a900473ffffffffffffffffffffffffffffffffffffffff168360030154604051610adb92919061192c565b60405180910390a25050565b610aef610dca565b5f73ffffffffffffffffffffffffffffffffffffffff168173ffffffffffffffffffffffffffffffffffffffff1603610b5f575f6040517f1e4fbdf7000000000000000000000000000000000000000000000000000000008152600401610b56919061157b565b60405180910390fd5b610b6881610ea6565b50565b610b73610dca565b5f8103610bac576040517f2c5211c600000000000000000000000000000000000000000000000000000000815260040160405180910390fd5b808273ffffffffffffffffffffffffffffffffffffffff166370a08231306040518263ffffffff1660e01b8152600401610be6919061157b565b602060405180830381865afa158015610c01573d5f5f3e3d5ffd5b505050506040513d601f19601f82011682018060405250810190610c25919061199a565b1015610c5d576040517ff4d678b800000000000000000000000000000000000000000000000000000000815260040160405180910390fd5b610c8f610c6861081a565b828473ffffffffffffffffffffffffffffffffffffffff16610f679092919063ffffffff16565b8173ffffffffffffffffffffffffffffffffffffffff167f7084f5476618d8e60b11ef0d7d3f06914655adb8793e28ff7f018d4c76d505d582604051610cd591906113e2565b60405180910390a25050565b60025481565b610cef610dca565b5f60015f8381526020019081526020015f206006015f6101000a81548160ff021916908315150217905550807f2ab1633ee1c8f5f30bf7256ec76165edf4f18cc0012fc76c71530566b986fa4d60405160405180910390a250565b5f8173ffffffffffffffffffffffffffffffffffffffff166370a08231306040518263ffffffff1660e01b8152600401610d84919061157b565b602060405180830381865afa158015610d9f573d5f5f3e3d5ffd5b505050506040513d601f19601f82011682018060405250810190610dc3919061199a565b9050919050565b610dd2610fba565b73ffffffffffffffffffffffffffffffffffffffff16610df061081a565b73ffffffffffffffffffffffffffffffffffffffff1614610e4f57610e13610fba565b6040517f118cdaa7000000000000000000000000000000000000000000000000000000008152600401610e46919061157b565b60405180910390fd5b565b610e5f848484846001610fc1565b610ea057836040517f5274afe7000000000000000000000000000000000000000000000000000000008152600401610e97919061157b565b60405180910390fd5b50505050565b5f5f5f9054906101000a900473ffffffffffffffffffffffffffffffffffffffff169050815f5f6101000a81548173ffffffffffffffffffffffffffffffffffffffff021916908373ffffffffffffffffffffffffffffffffffffffff1602179055508173ffffffffffffffffffffffffffffffffffffffff168173ffffffffffffffffffffffffffffffffffffffff167f8be0079c531659141344cd1fd0a4f28419497f9722a3daafe3b4186f6b6457e060405160405180910390a35050565b610f748383836001611032565b610fb557826040517f5274afe7000000000000000000000000000000000000000000000000000000008152600401610fac919061157b565b60405180910390fd5b505050565b5f33905090565b5f5f6323b872dd60e01b9050604051815f525f1960601c87166004525f1960601c86166024528460445260205f60645f5f8c5af1925060015f5114831661101f578383151615611013573d5f823e3d81fd5b5f883b113d1516831692505b806040525f606052505095945050505050565b5f5f63a9059cbb60e01b9050604051815f525f1960601c86166004528460245260205f60445f5f8b5af1925060015f5114831661108657838315161561107a573d5f823e3d81fd5b5f873b113d1516831692505b806040525050949350505050565b6040518061010001604052805f81526020015f73ffffffffffffffffffffffffffffffffffffffff1681526020015f73ffffffffffffffffffffffffffffffffffffffff1681526020015f81526020015f81526020015f81526020015f15158152602001606081525090565b5f5ffd5b5f5ffd5b5f819050919050565b61111a81611108565b8114611124575f5ffd5b50565b5f8135905061113581611111565b92915050565b5f602082840312156111505761114f611100565b5b5f61115d84828501611127565b91505092915050565b61116f81611108565b82525050565b5f73ffffffffffffffffffffffffffffffffffffffff82169050919050565b5f61119e82611175565b9050919050565b6111ae81611194565b82525050565b5f8115159050919050565b6111c8816111b4565b82525050565b5f81519050919050565b5f82825260208201905092915050565b8281835e5f83830152505050565b5f601f19601f8301169050919050565b5f611210826111ce565b61121a81856111d8565b935061122a8185602086016111e8565b611233816111f6565b840191505092915050565b5f610100820190506112525f83018b611166565b61125f602083018a6111a5565b61126c60408301896111a5565b6112796060830188611166565b6112866080830187611166565b61129360a0830186611166565b6112a060c08301856111bf565b81810360e08301526112b28184611206565b90509998505050505050505050565b6112ca81611194565b81146112d4575f5ffd5b50565b5f813590506112e5816112c1565b92915050565b5f5ffd5b5f5ffd5b5f5ffd5b5f5f83601f84011261130c5761130b6112eb565b5b8235905067ffffffffffffffff811115611329576113286112ef565b5b602083019150836001820283011115611345576113446112f3565b5b9250929050565b5f5f5f5f5f5f60a0878903121561136657611365611100565b5b5f61137389828a016112d7565b965050602061138489828a016112d7565b955050604061139589828a01611127565b94505060606113a689828a01611127565b935050608087013567ffffffffffffffff8111156113c7576113c6611104565b5b6113d389828a016112f7565b92509250509295509295509295565b5f6020820190506113f55f830184611166565b92915050565b5f5f6040838503121561141157611410611100565b5b5f61141e858286016112d7565b925050602061142f85828601611127565b9150509250929050565b61144281611108565b82525050565b61145181611194565b82525050565b611460816111b4565b82525050565b5f82825260208201905092915050565b5f611480826111ce565b61148a8185611466565b935061149a8185602086016111e8565b6114a3816111f6565b840191505092915050565b5f61010083015f8301516114c45f860182611439565b5060208301516114d76020860182611448565b5060408301516114ea6040860182611448565b5060608301516114fd6060860182611439565b5060808301516115106080860182611439565b5060a083015161152360a0860182611439565b5060c083015161153660c0860182611457565b5060e083015184820360e086015261154e8282611476565b9150508091505092915050565b5f6020820190508181035f83015261157381846114ae565b905092915050565b5f60208201905061158e5f8301846111a5565b92915050565b5f602082840312156115a9576115a8611100565b5b5f6115b6848285016112d7565b91505092915050565b7f4e487b71000000000000000000000000000000000000000000000000000000005f52602260045260245ffd5b5f600282049050600182168061160357607f821691505b602082108103611616576116156115bf565b5b50919050565b7f4e487b71000000000000000000000000000000000000000000000000000000005f52601160045260245ffd5b5f61165382611108565b91507fffffffffffffffffffffffffffffffffffffffffffffffffffffffffffffffff82036116855761168461161c565b5b600182019050919050565b7f4e487b71000000000000000000000000000000000000000000000000000000005f52604160045260245ffd5b5f819050815f5260205f209050919050565b5f6020601f8301049050919050565b5f82821b905092915050565b5f600883026117197fffffffffffffffffffffffffffffffffffffffffffffffffffffffffffffffff826116de565b61172386836116de565b95508019841693508086168417925050509392505050565b5f819050919050565b5f61175e61175961175484611108565b61173b565b611108565b9050919050565b5f819050919050565b61177783611744565b61178b61178382611765565b8484546116ea565b825550505050565b5f5f905090565b6117a2611793565b6117ad81848461176e565b505050565b5b818110156117d0576117c55f8261179a565b6001810190506117b3565b5050565b601f821115611815576117e6816116bd565b6117ef846116cf565b810160208510156117fe578190505b61181261180a856116cf565b8301826117b2565b50505b505050565b5f82821c905092915050565b5f6118355f198460080261181a565b1980831691505092915050565b5f61184d8383611826565b9150826002028217905092915050565b611866826111ce565b67ffffffffffffffff81111561187f5761187e611690565b5b61188982546115ec565b6118948282856117d4565b5f60209050601f8311600181146118c5575f84156118b3578287015190505b6118bd8582611842565b865550611924565b601f1984166118d3866116bd565b5f5b828110156118fa578489015182556001820191506020850194506020810190506118d5565b868310156119175784890151611913601f891682611826565b8355505b6001600288020188555050505b505050505050565b5f60408201905061193f5f8301856111a5565b61194c6020830184611166565b9392505050565b5f61195d82611108565b915061196883611108565b92508282019050808211156119805761197f61161c565b5b92915050565b5f8151905061199481611111565b92915050565b5f602082840312156119af576119ae611100565b5b5f6119bc84828501611986565b9150509291505056fea26469706673582212206b5823cada5079377c0cd9db4c602376b61c87f3573c235f4c8348cfb614447364736f6c634300081e0033","linkReferences":{}},"methodIdentifiers":{"cancelRule(uint256)":"f77e2455","createRule(address,address,uint256,uint256,string)":"1f6257cb","deposit(address,uint256)":"47e7ef24","executeRule(uint256)":"c8c4c034","getBalance(address)":"f8b2cb4f","getRule(uint256)":"48462037","owner()":"8da5cb5b","renounceOwnership()":"715018a6","ruleCount()":"f6bcf633","rules(uint256)":"04d6ded4","transferOwnership(address)":"f2fde38b","withdraw(address,uint256)":"f3fef3a3"},"id":8}