{"abi":[{"type":"constructor","inputs":[{"name":"_owner","type":"address","internalType":"address"}],"stateMutability":"nonpayable"},{"type":"function","name":"cancelRule","inputs":[{"name":"ruleId","type":"uint256","internalType":"uint256"}],"outputs":[],"stateMutability":"nonpayable"},{"type":"function","name":"createRule","inputs":[{"name":"token","type":"address","internalType":"address"},{"name":"recipient","type":"address","internalType":"address"},{"name":"amount","type":"uint256","internalType":"uint256"},{"name":"interval","type":"uint256","internalType":"uint256"},{"name":"description","type":"string","internalType":"string"}],"outputs":[{"name":"ruleId","type":"uint256","internalType":"uint256"}],"stateMutability":"nonpayable"},{"type":"function","name":"deposit","inputs":[{"name":"token","type":"address","internalType":"address"},{"name":"amount","type":"uint256","internalType":"uint256"}],"outputs":[],"stateMutability":"nonpayable"},{"type":"function","name":"executeRule","inputs":[{"name":"ruleId","type":"uint256","internalType":"uint256"}],"outputs":[],"stateMutability":"nonpayable"},{"type":"function","name":"getBalance","inputs":[{"name":"token","type":"address","internalType":"address"}],"outputs":[{"name":"","type":"uint256","internalType":"uint256"}],"stateMutability":"view"},{"type":"function","name":"getRule","inputs":[{"name":"ruleId","type":"uint256","internalType":"uint256"}],"outputs":[{"name":"","type":"tuple","internalType":"struct PayPilotVault.PaymentRule","components":[{"name":"id","type":"uint256","internalType":"uint256"},{"name":"token","type":"address","internalType":"address"},{"name":"recipient","type":"address","internalType":"address"},{"name":"amount","type":"uint256","internalType":"uint256"},{"name":"interval","type":"uint256","internalType":"uint256"},{"name":"lastExecuted","type":"uint256","internalType":"uint256"},{"name":"active","type":"bool","internalType":"bool"},{"name":"description","type":"string","internalType":"string"}]}],"stateMutability":"view"},{"type":"function","name":"owner","inputs":[],"outputs":[{"name":"","type":"address","internalType":"address"}],"stateMutability":"view"},{"type":"function","name":"renounceOwnership","inputs":[],"outputs":[],"stateMutability":"nonpayable"},{"type":"function","name":"ruleCount","inputs":[],"outputs":[{"name":"","type":"uint256","internalType":"uint256"}],"stateMutability":"view"},{"type":"function","name":"rules","inputs":[{"name":"","type":"uint256","internalType":"uint256"}],"outputs":[{"name":"id","type":"uint256","internalType":"uint256"},{"name":"token","type":"address","internalType":"address"},{"name":"recipient","type":"address","internalType":"address"},{"name":"amount","type":"uint256","internalType":"uint256"},{"name":"interval","type":"uint256","internalType":"uint256"},{"name":"lastExecuted","type":"uint256","internalType":"uint256"},{"name":"active","type":"bool","internalType":"bool"},{"name":"description","type":"string","internalType":"string"}],"stateMutability":"view"},{"type":"function","name":"transferOwnership","inputs":[{"name":"newOwner","type":"address","internalType":"address"}],"outputs":[],"stateMutability":"nonpayable"},{"type":"function","name":"withdraw","inputs":[{"name":"token","type":"address","internalType":"address"},{"name":"amount","type":"uint256","internalType":"uint256"}],"outputs":[],"stateMutability":"nonpayable"},{"type":"event","name":"Deposited","inputs":[{"name":"token","type":"address","indexed":true,"internalType":"address"},{"name":"amount","type":"uint256","indexed":false,"internalType":"uint256"}],"anonymous":false},{"type":"event","name":"OwnershipTransferred","inputs":[{"name":"previousOwner","type":"address","indexed":true,"internalType":"address"},{"name":"newOwner","type":"address","indexed":true,"internalType":"address"}],"anonymous":false},{"type":"event","name":"RuleCancelled","inputs":[{"name":"ruleId","type":"uint256","indexed":true,"internalType":"uint256"}],"anonymous":false},{"type":"event","name":"RuleCreated","inputs":[{"name":"ruleId","type":"uint256","indexed":true,"internalType":"uint256"},{"name":"recipient","type":"address","indexed":false,"internalType":"address"},{"name":"amount","type":"uint256","indexed":false,"internalType":"uint256"}],"anonymous":false},{"type":"event","name":"RuleExecuted","inputs":[{"name":"ruleId","type":"uint256","indexed":true,"internalType":"uint256"},{"name":"recipient","type":"address","indexed":false,"internalType":"address"},{"name":"amount","type":"uint256","indexed":false,"internalType":"uint256"}],"anonymous":false},{"type":"event","name":"Withdrawn","inputs":[{"name":"token","type":"address","indexed":true,"internalType":"address"},{"name":"amount","type":"uint256","indexed":false,"internalType":"uint256"}],"anonymous":false},{"type":"error","name":"InsufficientBalance","inputs":[]},{"type":"error","name":"InvalidAmount","inputs":[]},{"type":"error","name":"OwnableInvalidOwner","inputs":[{"name":"owner","type":"address","internalType":"address"}]},{"type":"error","name":"OwnableUnauthorizedAccount","inputs":[{"name":"account","type":"address","internalType":"address"}]},{"type":"error","name":"RuleNotActive","inputs":[]},{"type":"error","name":"SafeERC20FailedOperation","inputs":[{"name":"token","type":"address","internalType":"address"}]},{"type":"error","name":"TooEarlyToExecute","inputs":[]}],"bytecode":{"object":"0x608060405234801562000010575f80fd5b5060405162001c6538038062001c658339818101604052810190620000369190620001e9565b805f73ffffffffffffffffffffffffffffffffffffffff168173ffffffffffffffffffffffffffffffffffffffff1603620000aa575f6040517f1e4fbdf7000000000000000000000000000000000000000000000000000000008152600401620000a191906200022a565b60405180910390fd5b620000bb81620000c360201b60201c565b505062000245565b5f805f9054906101000a900473ffffffffffffffffffffffffffffffffffffffff169050815f806101000a81548173ffffffffffffffffffffffffffffffffffffffff021916908373ffffffffffffffffffffffffffffffffffffffff1602179055508173ffffffffffffffffffffffffffffffffffffffff168173ffffffffffffffffffffffffffffffffffffffff167f8be0079c531659141344cd1fd0a4f28419497f9722a3daafe3b4186f6b6457e060405160405180910390a35050565b5f80fd5b5f73ffffffffffffffffffffffffffffffffffffffff82169050919050565b5f620001b38262000188565b9050919050565b620001c581620001a7565b8114620001d0575f80fd5b50565b5f81519050620001e381620001ba565b92915050565b5f6020828403121562000201576200020062000184565b5b5f6200021084828501620001d3565b91505092915050565b6200022481620001a7565b82525050565b5f6020820190506200023f5f83018462000219565b92915050565b611a1280620002535f395ff3fe608060405234801561000f575f80fd5b50600436106100b2575f3560e01c8063c8c4c0341161006f578063c8c4c03414610191578063f2fde38b146101ad578063f3fef3a3146101c9578063f6bcf633146101e5578063f77e245514610203578063f8b2cb4f1461021f576100b2565b806304d6ded4146100b65780631f6257cb146100ed57806347e7ef241461011d5780634846203714610139578063715018a6146101695780638da5cb5b14610173575b5f80fd5b6100d060048036038101906100cb919061113b565b61024f565b6040516100e4989796959493929190611258565b60405180910390f35b61010760048036038101906101029190611366565b610363565b60405161011491906113fc565b60405180910390f35b61013760048036038101906101329190611415565b6105a8565b005b610153600480360381019061014e919061113b565b610660565b6040516101609190611575565b60405180910390f35b610171610807565b005b61017b61081a565b6040516101889190611595565b60405180910390f35b6101ab60048036038101906101a6919061113b565b610841565b005b6101c760048036038101906101c291906115ae565b610ae7565b005b6101e360048036038101906101de9190611415565b610b6b565b005b6101ed610ce1565b6040516101fa91906113fc565b60405180910390f35b61021d6004803603810190610218919061113b565b610ce7565b005b610239600480360381019061023491906115ae565b610d4a565b60405161024691906113fc565b60405180910390f35b6001602052805f5260405f205f91509050805f015490806001015f9054906101000a900473ffffffffffffffffffffffffffffffffffffffff1690806002015f9054906101000a900473ffffffffffffffffffffffffffffffffffffffff1690806003015490806004015490806005015490806006015f9054906101000a900460ff16908060070180546102e290611606565b80601f016020809104026020016040519081016040528092919081815260200182805461030e90611606565b80156103595780601f1061033057610100808354040283529160200191610359565b820191905f5260205f20905b81548152906001019060200180831161033c57829003601f168201915b5050505050905088565b5f61036c610dca565b5f85036103a5576040517f2c5211c600000000000000000000000000000000000000000000000000000000815260040160405180910390fd5b60025f8154809291906103b790611663565b9190505590506040518061010001604052808281526020018873ffffffffffffffffffffffffffffffffffffffff1681526020018773ffffffffffffffffffffffffffffffffffffffff1681526020018681526020018581526020015f815260200160011515815260200184848080601f0160208091040260200160405190810160405280939291908181526020018383808284375f81840152601f19601f8201169050808301925050505050505081525060015f8381526020019081526020015f205f820151815f01556020820151816001015f6101000a81548173ffffffffffffffffffffffffffffffffffffffff021916908373ffffffffffffffffffffffffffffffffffffffff1602179055506040820151816002015f6101000a81548173ffffffffffffffffffffffffffffffffffffffff021916908373ffffffffffffffffffffffffffffffffffffffff160217905550606082015181600301556080820151816004015560a0820151816005015560c0820151816006015f6101000a81548160ff02191690831515021790555060e08201518160070190816105609190611874565b50905050807fa5a05b6f921615a2a8b76b731acd36283b9b9aa6413126c26c1ba68bab813e5d8787604051610596929190611943565b60405180910390a29695505050505050565b5f81036105e1576040517f2c5211c600000000000000000000000000000000000000000000000000000000815260040160405180910390fd5b61060e3330838573ffffffffffffffffffffffffffffffffffffffff16610e51909392919063ffffffff16565b8173ffffffffffffffffffffffffffffffffffffffff167f2da466a7b24304f47e87fa2e1e5a81b9831ce54fec19055ce277ca2f39ba42c48260405161065491906113fc565b60405180910390a25050565b610668611094565b60015f8381526020019081526020015f20604051806101000160405290815f8201548152602001600182015f9054906101000a900473ffffffffffffffffffffffffffffffffffffffff1673ffffffffffffffffffffffffffffffffffffffff1673ffffffffffffffffffffffffffffffffffffffff168152602001600282015f9054906101000a900473ffffffffffffffffffffffffffffffffffffffff1673ffffffffffffffffffffffffffffffffffffffff1673ffffffffffffffffffffffffffffffffffffffff168152602001600382015481526020016004820154815260200160058201548152602001600682015f9054906101000a900460ff1615151515815260200160078201805461078090611606565b80601f01602080910402602001604051908101604052809291908181526020018280546107ac90611606565b80156107f75780601f106107ce576101008083540402835291602001916107f7565b820191905f5260205f20905b8154815290600101906020018083116107da57829003601f168201915b5050505050815250509050919050565b61080f610dca565b6108185f610ea6565b565b5f805f9054906101000a900473ffffffffffffffffffffffffffffffffffffffff16905090565b5f60015f8381526020019081526020015f209050806006015f9054906101000a900460ff1661089c576040517f822e020700000000000000000000000000000000000000000000000000000000815260040160405180910390fd5b5f81600401541180156108b257505f8160050154115b1561090557806004015481600501546108cb919061196a565b421015610904576040517fe65e683300000000000000000000000000000000000000000000000000000000815260040160405180910390fd5b5b8060030154816001015f9054906101000a900473ffffffffffffffffffffffffffffffffffffffff1673ffffffffffffffffffffffffffffffffffffffff166370a08231306040518263ffffffff1660e01b81526004016109669190611595565b602060405180830381865afa158015610981573d5f803e3d5ffd5b505050506040513d601f19601f820116820180604052508101906109a591906119b1565b10156109dd576040517ff4d678b800000000000000000000000000000000000000000000000000000000815260040160405180910390fd5b4281600501819055505f816004015403610a0d575f816006015f6101000a81548160ff0219169083151502179055505b610a82816002015f9054906101000a900473ffffffffffffffffffffffffffffffffffffffff168260030154836001015f9054906101000a900473ffffffffffffffffffffffffffffffffffffffff1673ffffffffffffffffffffffffffffffffffffffff16610f679092919063ffffffff16565b817f7d09350a2900cc9ab2f1d049377a344a64b58dbd74621c887b0e92ef7777d774826002015f9054906101000a900473ffffffffffffffffffffffffffffffffffffffff168360030154604051610adb929190611943565b60405180910390a25050565b610aef610dca565b5f73ffffffffffffffffffffffffffffffffffffffff168173ffffffffffffffffffffffffffffffffffffffff1603610b5f575f6040517f1e4fbdf7000000000000000000000000000000000000000000000000000000008152600401610b569190611595565b60405180910390fd5b610b6881610ea6565b50565b610b73610dca565b5f8103610bac576040517f2c5211c600000000000000000000000000000000000000000000000000000000815260040160405180910390fd5b808273ffffffffffffffffffffffffffffffffffffffff166370a08231306040518263ffffffff1660e01b8152600401610be69190611595565b602060405180830381865afa158015610c01573d5f803e3d5ffd5b505050506040513d601f19601f82011682018060405250810190610c2591906119b1565b1015610c5d576040517ff4d678b800000000000000000000000000000000000000000000000000000000815260040160405180910390fd5b610c8f610c6861081a565b828473ffffffffffffffffffffffffffffffffffffffff16610f679092919063ffffffff16565b8173ffffffffffffffffffffffffffffffffffffffff167f7084f5476618d8e60b11ef0d7d3f06914655adb8793e28ff7f018d4c76d505d582604051610cd591906113fc565b60405180910390a25050565b60025481565b610cef610dca565b5f60015f8381526020019081526020015f206006015f6101000a81548160ff021916908315150217905550807f2ab1633ee1c8f5f30bf7256ec76165edf4f18cc0012fc76c71530566b986fa4d60405160405180910390a250565b5f8173ffffffffffffffffffffffffffffffffffffffff166370a08231306040518263ffffffff1660e01b8152600401610d849190611595565b602060405180830381865afa158015610d9f573d5f803e3d5ffd5b505050506040513d601f19601f82011682018060405250810190610dc391906119b1565b9050919050565b610dd2610fba565b73ffffffffffffffffffffffffffffffffffffffff16610df061081a565b73ffffffffffffffffffffffffffffffffffffffff1614610e4f57610e13610fba565b6040517f118cdaa7000000000000000000000000000000000000000000000000000000008152600401610e469190611595565b60405180910390fd5b565b610e5f848484846001610fc1565b610ea057836040517f5274afe7000000000000000000000000000000000000000000000000000000008152600401610e979190611595565b60405180910390fd5b50505050565b5f805f9054906101000a900473ffffffffffffffffffffffffffffffffffffffff169050815f806101000a81548173ffffffffffffffffffffffffffffffffffffffff021916908373ffffffffffffffffffffffffffffffffffffffff1602179055508173ffffffffffffffffffffffffffffffffffffffff168173ffffffffffffffffffffffffffffffffffffffff167f8be0079c531659141344cd1fd0a4f28419497f9722a3daafe3b4186f6b6457e060405160405180910390a35050565b610f748383836001611032565b610fb557826040517f5274afe7000000000000000000000000000000000000000000000000000000008152600401610fac9190611595565b60405180910390fd5b505050565b5f33905090565b5f806323b872dd60e01b9050604051815f525f1960601c87166004525f1960601c86166024528460445260205f60645f808c5af1925060015f5114831661101f578383151615611013573d5f823e3d81fd5b5f883b113d1516831692505b806040525f606052505095945050505050565b5f8063a9059cbb60e01b9050604051815f525f1960601c86166004528460245260205f60445f808b5af1925060015f5114831661108657838315161561107a573d5f823e3d81fd5b5f873b113d1516831692505b806040525050949350505050565b6040518061010001604052805f81526020015f73ffffffffffffffffffffffffffffffffffffffff1681526020015f73ffffffffffffffffffffffffffffffffffffffff1681526020015f81526020015f81526020015f81526020015f15158152602001606081525090565b5f80fd5b5f80fd5b5f819050919050565b61111a81611108565b8114611124575f80fd5b50565b5f8135905061113581611111565b92915050565b5f602082840312156111505761114f611100565b5b5f61115d84828501611127565b91505092915050565b61116f81611108565b82525050565b5f73ffffffffffffffffffffffffffffffffffffffff82169050919050565b5f61119e82611175565b9050919050565b6111ae81611194565b82525050565b5f8115159050919050565b6111c8816111b4565b82525050565b5f81519050919050565b5f82825260208201905092915050565b5f5b838110156112055780820151818401526020810190506111ea565b5f8484015250505050565b5f601f19601f8301169050919050565b5f61122a826111ce565b61123481856111d8565b93506112448185602086016111e8565b61124d81611210565b840191505092915050565b5f6101008201905061126c5f83018b611166565b611279602083018a6111a5565b61128660408301896111a5565b6112936060830188611166565b6112a06080830187611166565b6112ad60a0830186611166565b6112ba60c08301856111bf565b81810360e08301526112cc8184611220565b90509998505050505050505050565b6112e481611194565b81146112ee575f80fd5b50565b5f813590506112ff816112db565b92915050565b5f80fd5b5f80fd5b5f80fd5b5f8083601f84011261132657611325611305565b5b8235905067ffffffffffffffff81111561134357611342611309565b5b60208301915083600182028301111561135f5761135e61130d565b5b9250929050565b5f805f805f8060a087890312156113805761137f611100565b5b5f61138d89828a016112f1565b965050602061139e89828a016112f1565b95505060406113af89828a01611127565b94505060606113c089828a01611127565b935050608087013567ffffffffffffffff8111156113e1576113e0611104565b5b6113ed89828a01611311565b92509250509295509295509295565b5f60208201905061140f5f830184611166565b92915050565b5f806040838503121561142b5761142a611100565b5b5f611438858286016112f1565b925050602061144985828601611127565b9150509250929050565b61145c81611108565b82525050565b61146b81611194565b82525050565b61147a816111b4565b82525050565b5f82825260208201905092915050565b5f61149a826111ce565b6114a48185611480565b93506114b48185602086016111e8565b6114bd81611210565b840191505092915050565b5f61010083015f8301516114de5f860182611453565b5060208301516114f16020860182611462565b5060408301516115046040860182611462565b5060608301516115176060860182611453565b50608083015161152a6080860182611453565b5060a083015161153d60a0860182611453565b5060c083015161155060c0860182611471565b5060e083015184820360e08601526115688282611490565b9150508091505092915050565b5f6020820190508181035f83015261158d81846114c8565b905092915050565b5f6020820190506115a85f8301846111a5565b92915050565b5f602082840312156115c3576115c2611100565b5b5f6115d0848285016112f1565b91505092915050565b7f4e487b71000000000000000000000000000000000000000000000000000000005f52602260045260245ffd5b5f600282049050600182168061161d57607f821691505b6020821081036116305761162f6115d9565b5b50919050565b7f4e487b71000000000000000000000000000000000000000000000000000000005f52601160045260245ffd5b5f61166d82611108565b91507fffffffffffffffffffffffffffffffffffffffffffffffffffffffffffffffff820361169f5761169e611636565b5b600182019050919050565b7f4e487b71000000000000000000000000000000000000000000000000000000005f52604160045260245ffd5b5f819050815f5260205f209050919050565b5f6020601f8301049050919050565b5f82821b905092915050565b5f600883026117337fffffffffffffffffffffffffffffffffffffffffffffffffffffffffffffffff826116f8565b61173d86836116f8565b95508019841693508086168417925050509392505050565b5f819050919050565b5f61177861177361176e84611108565b611755565b611108565b9050919050565b5f819050919050565b6117918361175e565b6117a561179d8261177f565b848454611704565b825550505050565b5f90565b6117b96117ad565b6117c4818484611788565b505050565b5b818110156117e7576117dc5f826117b1565b6001810190506117ca565b5050565b601f82111561182c576117fd816116d7565b611806846116e9565b81016020851015611815578190505b611829611821856116e9565b8301826117c9565b50505b505050565b5f82821c905092915050565b5f61184c5f1984600802611831565b1980831691505092915050565b5f611864838361183d565b9150826002028217905092915050565b61187d826111ce565b67ffffffffffffffff811115611896576118956116aa565b5b6118a08254611606565b6118ab8282856117eb565b5f60209050601f8311600181146118dc575f84156118ca578287015190505b6118d48582611859565b86555061193b565b601f1984166118ea866116d7565b5f5b82811015611911578489015182556001820191506020850194506020810190506118ec565b8683101561192e578489015161192a601f89168261183d565b8355505b6001600288020188555050505b505050505050565b5f6040820190506119565f8301856111a5565b6119636020830184611166565b9392505050565b5f61197482611108565b915061197f83611108565b925082820190508082111561199757611996611636565b5b92915050565b5f815190506119ab81611111565b92915050565b5f602082840312156119c6576119c5611100565b5b5f6119d38482850161199d565b9150509291505056fea264697066735822122012185b1fd2f19c245e3b9bd14c760ca968b03af2c54536f1d1439aaa08b5dae864736f6c63430008140033","linkReferences":{}},"methodIdentifiers":{"cancelRule(uint256)":"f77e2455","createRule(address,address,uint256,uint256,string)":"1f6257cb","deposit(address,uint256)":"47e7ef24","executeRule(uint256)":"c8c4c034","getBalance(address)":"f8b2cb4f","getRule(uint256)":"48462037","owner()":"8da5cb5b","renounceOwnership()":"715018a6","ruleCount()":"f6bcf633","rules(uint256)":"04d6ded4","transferOwnership(address)":"f2fde38b","withdraw(address,uint256)":"f3fef3a3"},"id":25}